{
  "contractName": "ImageContract",
  "abi": [
    {
      "constant": true,
      "inputs": [
        {
          "name": "",
          "type": "uint256"
        }
      ],
      "name": "images",
      "outputs": [
        {
          "name": "id",
          "type": "uint256"
        },
        {
          "name": "imageHash",
          "type": "string"
        },
        {
          "name": "paidAmount",
          "type": "uint256"
        },
        {
          "name": "owner",
          "type": "address"
        },
        {
          "name": "uploadTime",
          "type": "uint256"
        }
      ],
      "payable": false,
      "stateMutability": "view",
      "type": "function",
      "signature": "0x84856482"
    },
    {
      "constant": true,
      "inputs": [],
      "name": "imageCount",
      "outputs": [
        {
          "name": "",
          "type": "uint256"
        }
      ],
      "payable": false,
      "stateMutability": "view",
      "type": "function",
      "signature": "0x92053b63"
    },
    {
      "inputs": [],
      "payable": false,
      "stateMutability": "nonpayable",
      "type": "constructor",
      "signature": "constructor"
    },
    {
      "anonymous": false,
      "inputs": [
        {
          "indexed": false,
          "name": "id",
          "type": "uint256"
        },
        {
          "indexed": false,
          "name": "imageHash",
          "type": "string"
        },
        {
          "indexed": false,
          "name": "paidAmount",
          "type": "uint256"
        },
        {
          "indexed": false,
          "name": "owner",
          "type": "address"
        },
        {
          "indexed": false,
          "name": "uploadTime",
          "type": "uint256"
        }
      ],
      "name": "ImageCreated",
      "type": "event",
      "signature": "0x457e38ce2c4db12c9a6927e00f936149decccbe024ad073700d18d7147d0543f"
    },
    {
      "anonymous": false,
      "inputs": [
        {
          "indexed": false,
          "name": "id",
          "type": "uint256"
        },
        {
          "indexed": false,
          "name": "imageHash",
          "type": "string"
        },
        {
          "indexed": false,
          "name": "paidAmount",
          "type": "uint256"
        },
        {
          "indexed": false,
          "name": "uploadTime",
          "type": "uint256"
        }
      ],
      "name": "ImageTipped",
      "type": "event",
      "signature": "0x2899f07c138febd656ca4de543d397b56300fc136f1bc57f4c64679908cb594d"
    },
    {
      "constant": false,
      "inputs": [
        {
          "name": "_imageHash",
          "type": "string"
        }
      ],
      "name": "uploadImage",
      "outputs": [],
      "payable": false,
      "stateMutability": "nonpayable",
      "type": "function",
      "signature": "0xe740c8a0"
    },
    {
      "constant": false,
      "inputs": [
        {
          "name": "_id",
          "type": "uint256"
        }
      ],
      "name": "payNode",
      "outputs": [],
      "payable": true,
      "stateMutability": "payable",
      "type": "function",
      "signature": "0x64c46de7"
    }
  ],
  "bytecode": "0x6080604052600060015573d314035cb64cbb62e9841b0c922cdc8dc356d8b6600360006101000a81548173ffffffffffffffffffffffffffffffffffffffff021916908373ffffffffffffffffffffffffffffffffffffffff16021790555034801561006a57600080fd5b506109e88061007a6000396000f3fe608060405260043610610062576000357c0100000000000000000000000000000000000000000000000000000000900463ffffffff16806364c46de714610067578063848564821461009557806392053b6314610191578063e740c8a0146101bc575b600080fd5b6100936004803603602081101561007d57600080fd5b8101908080359060200190929190505050610284565b005b3480156100a157600080fd5b506100ce600480360360208110156100b857600080fd5b81019080803590602001909291905050506105b6565b60405180868152602001806020018581526020018473ffffffffffffffffffffffffffffffffffffffff1673ffffffffffffffffffffffffffffffffffffffff168152602001838152602001828103825286818151815260200191508051906020019080838360005b83811015610152578082015181840152602081019050610137565b50505050905090810190601f16801561017f5780820380516001836020036101000a031916815260200191505b50965050505050505060405180910390f35b34801561019d57600080fd5b506101a66106a4565b6040518082815260200191505060405180910390f35b3480156101c857600080fd5b50610282600480360360208110156101df57600080fd5b81019080803590602001906401000000008111156101fc57600080fd5b82018360208201111561020e57600080fd5b8035906020019184600183028401116401000000008311171561023057600080fd5b91908080601f016020809104026020016040519081016040528093929190818152602001838380828437600081840152601f19601f8201169050808301925050505050505091929192905050506106aa565b005b60008111801561029657506001548111155b15156102a157600080fd5b6102a96108d1565b6004600083815260200190815260200160002060a0604051908101604052908160008201548152602001600182018054600181600116156101000203166002900480601f01602080910402602001604051908101604052809291908181526020018280546001816001161561010002031660029004801561036b5780601f106103405761010080835404028352916020019161036b565b820191906000526020600020905b81548152906001019060200180831161034e57829003601f168201915b50505050508152602001600282015481526020016003820160009054906101000a900473ffffffffffffffffffffffffffffffffffffffff1673ffffffffffffffffffffffffffffffffffffffff1673ffffffffffffffffffffffffffffffffffffffff1681526020016004820154815250509050600360009054906101000a900473ffffffffffffffffffffffffffffffffffffffff1673ffffffffffffffffffffffffffffffffffffffff166108fc349081150290604051600060405180830381858888f19350505050158015610448573d6000803e3d6000fd5b50348160400151018160400181815250508060046000848152602001908152602001600020600082015181600001556020820151816001019080519060200190610493929190610917565b506040820151816002015560608201518160030160006101000a81548173ffffffffffffffffffffffffffffffffffffffff021916908373ffffffffffffffffffffffffffffffffffffffff160217905550608082015181600401559050507f2899f07c138febd656ca4de543d397b56300fc136f1bc57f4c64679908cb594d828260200151836040015184608001516040518085815260200180602001848152602001838152602001828103825285818151815260200191508051906020019080838360005b8381101561057557808201518184015260208101905061055a565b50505050905090810190601f1680156105a25780820380516001836020036101000a031916815260200191505b509550505050505060405180910390a15050565b6004602052806000526040600020600091509050806000015490806001018054600181600116156101000203166002900480601f0160208091040260200160405190810160405280929190818152602001828054600181600116156101000203166002900480156106685780601f1061063d57610100808354040283529160200191610668565b820191906000526020600020905b81548152906001019060200180831161064b57829003601f168201915b5050505050908060020154908060030160009054906101000a900473ffffffffffffffffffffffffffffffffffffffff16908060040154905085565b60015481565b600081511115156106ba57600080fd5b600073ffffffffffffffffffffffffffffffffffffffff163373ffffffffffffffffffffffffffffffffffffffff16141515156106f657600080fd5b60016000815480929190600101919050555060a0604051908101604052806001548152602001828152602001600081526020013373ffffffffffffffffffffffffffffffffffffffff16815260200142815250600460006001548152602001908152602001600020600082015181600001556020820151816001019080519060200190610784929190610917565b506040820151816002015560608201518160030160006101000a81548173ffffffffffffffffffffffffffffffffffffffff021916908373ffffffffffffffffffffffffffffffffffffffff160217905550608082015181600401559050507f457e38ce2c4db12c9a6927e00f936149decccbe024ad073700d18d7147d0543f600154826000334260405180868152602001806020018581526020018473ffffffffffffffffffffffffffffffffffffffff1673ffffffffffffffffffffffffffffffffffffffff168152602001838152602001828103825286818151815260200191508051906020019080838360005b83811015610890578082015181840152602081019050610875565b50505050905090810190601f1680156108bd5780820380516001836020036101000a031916815260200191505b50965050505050505060405180910390a150565b60a060405190810160405280600081526020016060815260200160008152602001600073ffffffffffffffffffffffffffffffffffffffff168152602001600081525090565b828054600181600116156101000203166002900490600052602060002090601f016020900481019282601f1061095857805160ff1916838001178555610986565b82800160010185558215610986579182015b8281111561098557825182559160200191906001019061096a565b5b5090506109939190610997565b5090565b6109b991905b808211156109b557600081600090555060010161099d565b5090565b9056fea165627a7a72305820a81842404c704768732509ceb48e6fe64f76fd8ba9ba2b671756eaf37ef4bf670029",
  "source": "pragma solidity 0.5.0;\n\ncontract ImageContract {\n    // Variable with global scope, stored on blockchain\n    // _variables are used for local variables\n    string imageHash;\n    // Store Images\n    uint public imageCount = 0;\n    address owner;\n    address payable node = 0xD314035cB64cbb62e9841B0C922CDC8Dc356D8b6;\n    mapping(uint => Image) public images;\n\n    struct Image {\n        uint id;\n        string imageHash;\n        uint paidAmount;\n        address payable owner;\n        uint256 uploadTime;\n    }\n\n    event ImageCreated(\n        uint id,\n        string imageHash,\n        uint paidAmount,\n        address payable owner,\n        uint256 uploadTime\n    );\n\n    event ImageTipped(\n        uint id,\n        string imageHash,\n        uint paidAmount,\n        uint256 uploadTime\n    );\n\n    // Called when Smart Contract is deployed to the block chain\n    constructor() public {\n        // \n    }\n\n    // Storage and Memory keywords in Solidity are like a Computer's hard drive and RAM\n    // memory is a temporary place to store data whereas Storage holds data between function calls.\n    // Once execution stops, memory is completely wiped off for the next execution\n    // Each execution of the Smart Contract has access to the data previously stored on the storage area\n\n    // Create Images\n    function uploadImage(string memory _imageHash) public {\n        // Check that image hash is not empty\n        require(bytes(_imageHash).length > 0);\n\n        // Check that image description is not empty\n        require(msg.sender != address(0));\n\n        // Increment Image ID\n        imageCount++;\n        // Add Image to Contract\n        images[imageCount] = Image(imageCount, _imageHash, 0, msg.sender, block.timestamp);\n\n        // Trigger an Event\n        emit ImageCreated(imageCount, _imageHash, 0, msg.sender, block.timestamp);\n    }\n\n    // Pay the Node\n    function payNode(uint _id) public payable {\n        // Make sure the id is valid\n        require(_id > 0 && _id <= imageCount);\n        // Fetch the image\n        Image memory _image = images[_id];\n        // Pay the owner by sending them Ether\n        address(node).transfer(msg.value);\n        // Increment the paid amount\n        _image.paidAmount = _image.paidAmount + msg.value;\n        // Update the image\n        images[_id] = _image;\n        // Trigger an event\n        emit ImageTipped(_id, _image.imageHash, _image.paidAmount, _image.uploadTime);\n    }\n}\n",
  "sourcePath": "/home/sleepyboy/Desktop/SleepyStorage/src/contracts/ImageContract.sol",
  "compiler": {
    "name": "solc",
    "version": "0.5.0+commit.1d4f565a.Emscripten.clang"
  },
  "schemaVersion": "3.0.2",
  "updatedAt": "2021-10-05T05:58:07.616Z",
  "devdoc": {
    "methods": {}
  },
  "userdoc": {
    "methods": {}
  }
}