{
  "contractName": "ImageContract",
  "abi": [
    {
      "constant": true,
      "inputs": [
        {
          "name": "",
          "type": "uint256"
        }
      ],
      "name": "images",
      "outputs": [
        {
          "name": "id",
          "type": "uint256"
        },
        {
          "name": "imageHash",
          "type": "string"
        },
        {
          "name": "description",
          "type": "string"
        },
        {
          "name": "paidAmount",
          "type": "uint256"
        },
        {
          "name": "owner",
          "type": "address"
        },
        {
          "name": "uploadTime",
          "type": "uint256"
        }
      ],
      "payable": false,
      "stateMutability": "view",
      "type": "function",
      "signature": "0x84856482"
    },
    {
      "constant": true,
      "inputs": [],
      "name": "imageCount",
      "outputs": [
        {
          "name": "",
          "type": "uint256"
        }
      ],
      "payable": false,
      "stateMutability": "view",
      "type": "function",
      "signature": "0x92053b63"
    },
    {
      "inputs": [],
      "payable": false,
      "stateMutability": "nonpayable",
      "type": "constructor",
      "signature": "constructor"
    },
    {
      "anonymous": false,
      "inputs": [
        {
          "indexed": false,
          "name": "id",
          "type": "uint256"
        },
        {
          "indexed": false,
          "name": "imageHash",
          "type": "string"
        },
        {
          "indexed": false,
          "name": "description",
          "type": "string"
        },
        {
          "indexed": false,
          "name": "paidAmount",
          "type": "uint256"
        },
        {
          "indexed": false,
          "name": "owner",
          "type": "address"
        },
        {
          "indexed": false,
          "name": "uploadTime",
          "type": "uint256"
        }
      ],
      "name": "ImageCreated",
      "type": "event",
      "signature": "0x873045aae8db3cf5d94f08acfe8a25d88ddfd376f658916fc5cb4b348be5e7f9"
    },
    {
      "anonymous": false,
      "inputs": [
        {
          "indexed": false,
          "name": "id",
          "type": "uint256"
        },
        {
          "indexed": false,
          "name": "imageHash",
          "type": "string"
        },
        {
          "indexed": false,
          "name": "description",
          "type": "string"
        },
        {
          "indexed": false,
          "name": "paidAmount",
          "type": "uint256"
        },
        {
          "indexed": false,
          "name": "uploadTime",
          "type": "uint256"
        }
      ],
      "name": "ImageTipped",
      "type": "event",
      "signature": "0x325f97bd6b56a0100d346ec16886f71e4ba5eb0de9bf55e8db18a7f818f99c3b"
    },
    {
      "constant": false,
      "inputs": [
        {
          "name": "_imageHash",
          "type": "string"
        },
        {
          "name": "_description",
          "type": "string"
        }
      ],
      "name": "uploadImage",
      "outputs": [],
      "payable": false,
      "stateMutability": "nonpayable",
      "type": "function",
      "signature": "0xa91b8314"
    },
    {
      "constant": false,
      "inputs": [
        {
          "name": "_id",
          "type": "uint256"
        }
      ],
      "name": "payNode",
      "outputs": [],
      "payable": true,
      "stateMutability": "payable",
      "type": "function",
      "signature": "0x64c46de7"
    }
  ],
  "bytecode": "0x60806040526000600155736b1edcf7fe352ff2892047d017c6ece3563442fd600360006101000a81548173ffffffffffffffffffffffffffffffffffffffff021916908373ffffffffffffffffffffffffffffffffffffffff16021790555034801561006a57600080fd5b50610d618061007a6000396000f3fe608060405260043610610062576000357c0100000000000000000000000000000000000000000000000000000000900463ffffffff16806364c46de714610067578063848564821461009557806392053b63146101fd578063a91b831414610228575b600080fd5b6100936004803603602081101561007d57600080fd5b8101908080359060200190929190505050610387565b005b3480156100a157600080fd5b506100ce600480360360208110156100b857600080fd5b81019080803590602001909291905050506107e9565b6040518087815260200180602001806020018681526020018573ffffffffffffffffffffffffffffffffffffffff1673ffffffffffffffffffffffffffffffffffffffff168152602001848152602001838103835288818151815260200191508051906020019080838360005b8381101561015657808201518184015260208101905061013b565b50505050905090810190601f1680156101835780820380516001836020036101000a031916815260200191505b50838103825287818151815260200191508051906020019080838360005b838110156101bc5780820151818401526020810190506101a1565b50505050905090810190601f1680156101e95780820380516001836020036101000a031916815260200191505b509850505050505050505060405180910390f35b34801561020957600080fd5b50610212610975565b6040518082815260200191505060405180910390f35b34801561023457600080fd5b506103856004803603604081101561024b57600080fd5b810190808035906020019064010000000081111561026857600080fd5b82018360208201111561027a57600080fd5b8035906020019184600183028401116401000000008311171561029c57600080fd5b91908080601f016020809104026020016040519081016040528093929190818152602001838380828437600081840152601f19601f820116905080830192505050505050509192919290803590602001906401000000008111156102ff57600080fd5b82018360208201111561031157600080fd5b8035906020019184600183028401116401000000008311171561033357600080fd5b91908080601f016020809104026020016040519081016040528093929190818152602001838380828437600081840152601f19601f82011690508083019250505050505050919291929050505061097b565b005b60008111801561039957506001548111155b15156103a457600080fd5b6103ac610c43565b6004600083815260200190815260200160002060c0604051908101604052908160008201548152602001600182018054600181600116156101000203166002900480601f01602080910402602001604051908101604052809291908181526020018280546001816001161561010002031660029004801561046e5780601f106104435761010080835404028352916020019161046e565b820191906000526020600020905b81548152906001019060200180831161045157829003601f168201915b50505050508152602001600282018054600181600116156101000203166002900480601f0160208091040260200160405190810160405280929190818152602001828054600181600116156101000203166002900480156105105780601f106104e557610100808354040283529160200191610510565b820191906000526020600020905b8154815290600101906020018083116104f357829003601f168201915b50505050508152602001600382015481526020016004820160009054906101000a900473ffffffffffffffffffffffffffffffffffffffff1673ffffffffffffffffffffffffffffffffffffffff1673ffffffffffffffffffffffffffffffffffffffff1681526020016005820154815250509050600360009054906101000a900473ffffffffffffffffffffffffffffffffffffffff1673ffffffffffffffffffffffffffffffffffffffff166108fc349081150290604051600060405180830381858888f193505050501580156105ed573d6000803e3d6000fd5b50348160600151018160600181815250508060046000848152602001908152602001600020600082015181600001556020820151816001019080519060200190610638929190610c90565b506040820151816002019080519060200190610655929190610c90565b506060820151816003015560808201518160040160006101000a81548173ffffffffffffffffffffffffffffffffffffffff021916908373ffffffffffffffffffffffffffffffffffffffff16021790555060a082015181600501559050507f325f97bd6b56a0100d346ec16886f71e4ba5eb0de9bf55e8db18a7f818f99c3b828260200151836040015184606001518560a00151604051808681526020018060200180602001858152602001848152602001838103835287818151815260200191508051906020019080838360005b83811015610740578082015181840152602081019050610725565b50505050905090810190601f16801561076d5780820380516001836020036101000a031916815260200191505b50838103825286818151815260200191508051906020019080838360005b838110156107a657808201518184015260208101905061078b565b50505050905090810190601f1680156107d35780820380516001836020036101000a031916815260200191505b5097505050505050505060405180910390a15050565b6004602052806000526040600020600091509050806000015490806001018054600181600116156101000203166002900480601f01602080910402602001604051908101604052809291908181526020018280546001816001161561010002031660029004801561089b5780601f106108705761010080835404028352916020019161089b565b820191906000526020600020905b81548152906001019060200180831161087e57829003601f168201915b505050505090806002018054600181600116156101000203166002900480601f0160208091040260200160405190810160405280929190818152602001828054600181600116156101000203166002900480156109395780601f1061090e57610100808354040283529160200191610939565b820191906000526020600020905b81548152906001019060200180831161091c57829003601f168201915b5050505050908060030154908060040160009054906101000a900473ffffffffffffffffffffffffffffffffffffffff16908060050154905086565b60015481565b6000825111151561098b57600080fd5b6000815111151561099b57600080fd5b600073ffffffffffffffffffffffffffffffffffffffff163373ffffffffffffffffffffffffffffffffffffffff16141515156109d757600080fd5b60016000815480929190600101919050555060c0604051908101604052806001548152602001838152602001828152602001600081526020013373ffffffffffffffffffffffffffffffffffffffff16815260200142815250600460006001548152602001908152602001600020600082015181600001556020820151816001019080519060200190610a6b929190610c90565b506040820151816002019080519060200190610a88929190610c90565b506060820151816003015560808201518160040160006101000a81548173ffffffffffffffffffffffffffffffffffffffff021916908373ffffffffffffffffffffffffffffffffffffffff16021790555060a082015181600501559050507f873045aae8db3cf5d94f08acfe8a25d88ddfd376f658916fc5cb4b348be5e7f96001548383600033426040518087815260200180602001806020018681526020018573ffffffffffffffffffffffffffffffffffffffff1673ffffffffffffffffffffffffffffffffffffffff168152602001848152602001838103835288818151815260200191508051906020019080838360005b83811015610b99578082015181840152602081019050610b7e565b50505050905090810190601f168015610bc65780820380516001836020036101000a031916815260200191505b50838103825287818151815260200191508051906020019080838360005b83811015610bff578082015181840152602081019050610be4565b50505050905090810190601f168015610c2c5780820380516001836020036101000a031916815260200191505b509850505050505050505060405180910390a15050565b60c06040519081016040528060008152602001606081526020016060815260200160008152602001600073ffffffffffffffffffffffffffffffffffffffff168152602001600081525090565b828054600181600116156101000203166002900490600052602060002090601f016020900481019282601f10610cd157805160ff1916838001178555610cff565b82800160010185558215610cff579182015b82811115610cfe578251825591602001919060010190610ce3565b5b509050610d0c9190610d10565b5090565b610d3291905b80821115610d2e576000816000905550600101610d16565b5090565b9056fea165627a7a72305820d2536beacc1ece997dbec66df36561e1fed2c77dc34f5c771f0c9edd4fcf55be0029",
  "source": "pragma solidity 0.5.0;\n\ncontract ImageContract {\n    // Variable with global scope, stored on blockchain\n    // _variables are used for local variables\n    string imageHash;\n    // Store Images\n    uint public imageCount = 0;\n    address owner;\n    address payable node = 0x6b1EdCf7Fe352Ff2892047D017C6eCE3563442fd;\n    mapping(uint => Image) public images;\n\n    struct Image {\n        uint id;\n        string imageHash;\n        string description;\n        uint paidAmount;\n        address payable owner;\n        uint256 uploadTime;\n    }\n\n    event ImageCreated(\n        uint id,\n        string imageHash,\n        string description,\n        uint paidAmount,\n        address payable owner,\n        uint256 uploadTime\n    );\n\n    event ImageTipped(\n        uint id,\n        string imageHash,\n        string description,\n        uint paidAmount,\n        uint256 uploadTime\n    );\n\n    // Called when Smart Contract is deployed to the block chain\n    constructor() public {\n        // \n    }\n\n    // Storage and Memory keywords in Solidity are like a Computer's hard drive and RAM\n    // memory is a temporary place to store data whereas Storage holds data between function calls.\n    // Once execution stops, memory is completely wiped off for the next execution\n    // Each execution of the Smart Contract has access to the data previously stored on the storage area\n\n    // Create Images\n    function uploadImage(string memory _imageHash, string memory _description) public {\n        // Check that image hash is not empty\n        require(bytes(_imageHash).length > 0);\n\n        // Check that image description is not empty\n        require(bytes(_description).length > 0);\n\n        // Check that image description is not empty\n        require(msg.sender != address(0));\n\n        // Increment Image ID\n        imageCount++;\n        // Add Image to Contract\n        images[imageCount] = Image(imageCount, _imageHash, _description, 0, msg.sender, block.timestamp);\n\n        // Trigger an Event\n        emit ImageCreated(imageCount, _imageHash, _description, 0, msg.sender, block.timestamp);\n    }\n\n    // Pay the Node\n    function payNode(uint _id) public payable {\n        // Make sure the id is valid\n        require(_id > 0 && _id <= imageCount);\n        // Fetch the image\n        Image memory _image = images[_id];\n        // Pay the owner by sending them Ether\n        address(node).transfer(msg.value);\n        // Increment the paid amount\n        _image.paidAmount = _image.paidAmount + msg.value;\n        // Update the image\n        images[_id] = _image;\n        // Trigger an event\n        emit ImageTipped(_id, _image.imageHash, _image.description, _image.paidAmount, _image.uploadTime);\n    }\n}\n",
  "sourcePath": "/home/sleepyboy/Desktop/SleepyStorage/src/contracts/ImageContract.sol",
  "compiler": {
    "name": "solc",
    "version": "0.5.0+commit.1d4f565a.Emscripten.clang"
  },
  "schemaVersion": "3.0.2",
  "updatedAt": "2021-10-05T03:09:30.117Z",
  "devdoc": {
    "methods": {}
  },
  "userdoc": {
    "methods": {}
  }
}